{
  "address": "0x12764df3f4d136c5a82dc07E3E37b67C048c7783",
  "abi": [
    {
      "inputs": [],
      "stateMutability": "nonpayable",
      "type": "constructor"
    },
    {
      "anonymous": false,
      "inputs": [
        {
          "indexed": false,
          "internalType": "address",
          "name": "tokenRecovered",
          "type": "address"
        },
        {
          "indexed": false,
          "internalType": "uint256",
          "name": "amount",
          "type": "uint256"
        }
      ],
      "name": "AdminTokenRecovery",
      "type": "event"
    },
    {
      "anonymous": false,
      "inputs": [
        {
          "indexed": false,
          "internalType": "uint256",
          "name": "amount",
          "type": "uint256"
        }
      ],
      "name": "AdminWithdraw",
      "type": "event"
    },
    {
      "anonymous": false,
      "inputs": [
        {
          "indexed": true,
          "internalType": "address",
          "name": "user",
          "type": "address"
        },
        {
          "indexed": false,
          "internalType": "uint256",
          "name": "amount",
          "type": "uint256"
        }
      ],
      "name": "Deposit",
      "type": "event"
    },
    {
      "anonymous": false,
      "inputs": [
        {
          "indexed": false,
          "internalType": "uint256",
          "name": "amount",
          "type": "uint256"
        }
      ],
      "name": "DepositReward",
      "type": "event"
    },
    {
      "anonymous": false,
      "inputs": [
        {
          "indexed": true,
          "internalType": "address",
          "name": "user",
          "type": "address"
        },
        {
          "indexed": false,
          "internalType": "uint256",
          "name": "amount",
          "type": "uint256"
        }
      ],
      "name": "EmergencyWithdraw",
      "type": "event"
    },
    {
      "anonymous": false,
      "inputs": [
        {
          "indexed": false,
          "internalType": "address",
          "name": "user",
          "type": "address"
        }
      ],
      "name": "Harvest",
      "type": "event"
    },
    {
      "anonymous": false,
      "inputs": [
        {
          "indexed": false,
          "internalType": "uint256",
          "name": "poolLimitPerUser",
          "type": "uint256"
        }
      ],
      "name": "NewPoolLimit",
      "type": "event"
    },
    {
      "anonymous": false,
      "inputs": [
        {
          "indexed": false,
          "internalType": "uint256",
          "name": "rewardPerBlock",
          "type": "uint256"
        }
      ],
      "name": "NewRewardPerBlock",
      "type": "event"
    },
    {
      "anonymous": false,
      "inputs": [
        {
          "indexed": false,
          "internalType": "uint256",
          "name": "startBlock",
          "type": "uint256"
        },
        {
          "indexed": false,
          "internalType": "uint256",
          "name": "endBlock",
          "type": "uint256"
        }
      ],
      "name": "NewStartAndEndBlocks",
      "type": "event"
    },
    {
      "anonymous": false,
      "inputs": [
        {
          "indexed": true,
          "internalType": "address",
          "name": "previousOwner",
          "type": "address"
        },
        {
          "indexed": true,
          "internalType": "address",
          "name": "newOwner",
          "type": "address"
        }
      ],
      "name": "OwnershipTransferred",
      "type": "event"
    },
    {
      "anonymous": false,
      "inputs": [
        {
          "indexed": false,
          "internalType": "uint256",
          "name": "blockNumber",
          "type": "uint256"
        }
      ],
      "name": "RewardsStop",
      "type": "event"
    },
    {
      "anonymous": false,
      "inputs": [
        {
          "indexed": false,
          "internalType": "uint256",
          "name": "oldPercentage",
          "type": "uint256"
        },
        {
          "indexed": false,
          "internalType": "uint256",
          "name": "newPercentage",
          "type": "uint256"
        }
      ],
      "name": "SetPenaltyPercentage",
      "type": "event"
    },
    {
      "anonymous": false,
      "inputs": [
        {
          "indexed": false,
          "internalType": "uint256",
          "name": "oldBlocks",
          "type": "uint256"
        },
        {
          "indexed": false,
          "internalType": "uint256",
          "name": "newBlocks",
          "type": "uint256"
        }
      ],
      "name": "SetPenaltyPeriodBlocks",
      "type": "event"
    },
    {
      "anonymous": false,
      "inputs": [
        {
          "indexed": true,
          "internalType": "address",
          "name": "user",
          "type": "address"
        },
        {
          "indexed": false,
          "internalType": "uint256",
          "name": "amount",
          "type": "uint256"
        }
      ],
      "name": "Withdraw",
      "type": "event"
    },
    {
      "inputs": [],
      "name": "DIVIDEND_DEPLOYER",
      "outputs": [
        {
          "internalType": "address",
          "name": "",
          "type": "address"
        }
      ],
      "stateMutability": "view",
      "type": "function"
    },
    {
      "inputs": [],
      "name": "PRECISION_FACTOR",
      "outputs": [
        {
          "internalType": "uint256",
          "name": "",
          "type": "uint256"
        }
      ],
      "stateMutability": "view",
      "type": "function"
    },
    {
      "inputs": [],
      "name": "accTokenPerShare",
      "outputs": [
        {
          "internalType": "uint256",
          "name": "",
          "type": "uint256"
        }
      ],
      "stateMutability": "view",
      "type": "function"
    },
    {
      "inputs": [
        {
          "internalType": "uint256",
          "name": "_amount",
          "type": "uint256"
        }
      ],
      "name": "adminWithdraw",
      "outputs": [],
      "stateMutability": "nonpayable",
      "type": "function"
    },
    {
      "inputs": [],
      "name": "bonusEndBlock",
      "outputs": [
        {
          "internalType": "uint256",
          "name": "",
          "type": "uint256"
        }
      ],
      "stateMutability": "view",
      "type": "function"
    },
    {
      "inputs": [
        {
          "internalType": "uint256",
          "name": "_amount",
          "type": "uint256"
        }
      ],
      "name": "deposit",
      "outputs": [],
      "stateMutability": "nonpayable",
      "type": "function"
    },
    {
      "inputs": [
        {
          "internalType": "uint256",
          "name": "_amount",
          "type": "uint256"
        }
      ],
      "name": "depositReward",
      "outputs": [],
      "stateMutability": "nonpayable",
      "type": "function"
    },
    {
      "inputs": [],
      "name": "emergencyWithdraw",
      "outputs": [],
      "stateMutability": "nonpayable",
      "type": "function"
    },
    {
      "inputs": [],
      "name": "harvest",
      "outputs": [],
      "stateMutability": "nonpayable",
      "type": "function"
    },
    {
      "inputs": [],
      "name": "hasUserLimit",
      "outputs": [
        {
          "internalType": "bool",
          "name": "",
          "type": "bool"
        }
      ],
      "stateMutability": "view",
      "type": "function"
    },
    {
      "inputs": [
        {
          "internalType": "contract IBEP20",
          "name": "_stakedToken",
          "type": "address"
        },
        {
          "internalType": "contract IBEP20",
          "name": "_rewardToken",
          "type": "address"
        },
        {
          "internalType": "uint256",
          "name": "_rewardPerBlock",
          "type": "uint256"
        },
        {
          "internalType": "uint256",
          "name": "_startBlock",
          "type": "uint256"
        },
        {
          "internalType": "uint256",
          "name": "_bonusEndBlock",
          "type": "uint256"
        },
        {
          "internalType": "uint256",
          "name": "_poolLimitPerUser",
          "type": "uint256"
        },
        {
          "internalType": "address",
          "name": "_admin",
          "type": "address"
        }
      ],
      "name": "initialize",
      "outputs": [],
      "stateMutability": "nonpayable",
      "type": "function"
    },
    {
      "inputs": [],
      "name": "isInitialized",
      "outputs": [
        {
          "internalType": "bool",
          "name": "",
          "type": "bool"
        }
      ],
      "stateMutability": "view",
      "type": "function"
    },
    {
      "inputs": [
        {
          "internalType": "address",
          "name": "_user",
          "type": "address"
        }
      ],
      "name": "isUserInPenaltyPeriod",
      "outputs": [
        {
          "internalType": "bool",
          "name": "penalty",
          "type": "bool"
        }
      ],
      "stateMutability": "view",
      "type": "function"
    },
    {
      "inputs": [],
      "name": "lastRewardBlock",
      "outputs": [
        {
          "internalType": "uint256",
          "name": "",
          "type": "uint256"
        }
      ],
      "stateMutability": "view",
      "type": "function"
    },
    {
      "inputs": [],
      "name": "owner",
      "outputs": [
        {
          "internalType": "address",
          "name": "",
          "type": "address"
        }
      ],
      "stateMutability": "view",
      "type": "function"
    },
    {
      "inputs": [],
      "name": "penaltyPercentage",
      "outputs": [
        {
          "internalType": "uint256",
          "name": "",
          "type": "uint256"
        }
      ],
      "stateMutability": "view",
      "type": "function"
    },
    {
      "inputs": [],
      "name": "penaltyPeriodBlocks",
      "outputs": [
        {
          "internalType": "uint256",
          "name": "",
          "type": "uint256"
        }
      ],
      "stateMutability": "view",
      "type": "function"
    },
    {
      "inputs": [
        {
          "internalType": "address",
          "name": "_user",
          "type": "address"
        }
      ],
      "name": "pendingReward",
      "outputs": [
        {
          "internalType": "uint256",
          "name": "",
          "type": "uint256"
        }
      ],
      "stateMutability": "view",
      "type": "function"
    },
    {
      "inputs": [],
      "name": "poolLimitPerUser",
      "outputs": [
        {
          "internalType": "uint256",
          "name": "",
          "type": "uint256"
        }
      ],
      "stateMutability": "view",
      "type": "function"
    },
    {
      "inputs": [
        {
          "internalType": "address",
          "name": "_tokenAddress",
          "type": "address"
        },
        {
          "internalType": "uint256",
          "name": "_tokenAmount",
          "type": "uint256"
        }
      ],
      "name": "recoverWrongTokens",
      "outputs": [],
      "stateMutability": "nonpayable",
      "type": "function"
    },
    {
      "inputs": [],
      "name": "renounceOwnership",
      "outputs": [],
      "stateMutability": "nonpayable",
      "type": "function"
    },
    {
      "inputs": [],
      "name": "rewardPerBlock",
      "outputs": [
        {
          "internalType": "uint256",
          "name": "",
          "type": "uint256"
        }
      ],
      "stateMutability": "view",
      "type": "function"
    },
    {
      "inputs": [],
      "name": "rewardToken",
      "outputs": [
        {
          "internalType": "contract IBEP20",
          "name": "",
          "type": "address"
        }
      ],
      "stateMutability": "view",
      "type": "function"
    },
    {
      "inputs": [
        {
          "internalType": "uint256",
          "name": "_percentage",
          "type": "uint256"
        }
      ],
      "name": "setPenaltyPercentage",
      "outputs": [],
      "stateMutability": "nonpayable",
      "type": "function"
    },
    {
      "inputs": [
        {
          "internalType": "uint256",
          "name": "_blocks",
          "type": "uint256"
        }
      ],
      "name": "setPenaltyPeriodBlocks",
      "outputs": [],
      "stateMutability": "nonpayable",
      "type": "function"
    },
    {
      "inputs": [],
      "name": "stakedToken",
      "outputs": [
        {
          "internalType": "contract IBEP20",
          "name": "",
          "type": "address"
        }
      ],
      "stateMutability": "view",
      "type": "function"
    },
    {
      "inputs": [],
      "name": "stakingCount",
      "outputs": [
        {
          "internalType": "uint256",
          "name": "",
          "type": "uint256"
        }
      ],
      "stateMutability": "view",
      "type": "function"
    },
    {
      "inputs": [],
      "name": "startBlock",
      "outputs": [
        {
          "internalType": "uint256",
          "name": "",
          "type": "uint256"
        }
      ],
      "stateMutability": "view",
      "type": "function"
    },
    {
      "inputs": [],
      "name": "stopReward",
      "outputs": [],
      "stateMutability": "nonpayable",
      "type": "function"
    },
    {
      "inputs": [
        {
          "internalType": "address",
          "name": "newOwner",
          "type": "address"
        }
      ],
      "name": "transferOwnership",
      "outputs": [],
      "stateMutability": "nonpayable",
      "type": "function"
    },
    {
      "inputs": [
        {
          "internalType": "bool",
          "name": "_hasUserLimit",
          "type": "bool"
        },
        {
          "internalType": "uint256",
          "name": "_poolLimitPerUser",
          "type": "uint256"
        }
      ],
      "name": "updatePoolLimitPerUser",
      "outputs": [],
      "stateMutability": "nonpayable",
      "type": "function"
    },
    {
      "inputs": [
        {
          "internalType": "uint256",
          "name": "_rewardPerBlock",
          "type": "uint256"
        }
      ],
      "name": "updateRewardPerBlock",
      "outputs": [],
      "stateMutability": "nonpayable",
      "type": "function"
    },
    {
      "inputs": [
        {
          "internalType": "uint256",
          "name": "_startBlock",
          "type": "uint256"
        },
        {
          "internalType": "uint256",
          "name": "_bonusEndBlock",
          "type": "uint256"
        }
      ],
      "name": "updateStartAndEndBlocks",
      "outputs": [],
      "stateMutability": "nonpayable",
      "type": "function"
    },
    {
      "inputs": [
        {
          "internalType": "address",
          "name": "",
          "type": "address"
        }
      ],
      "name": "userInfo",
      "outputs": [
        {
          "internalType": "uint256",
          "name": "amount",
          "type": "uint256"
        },
        {
          "internalType": "uint256",
          "name": "rewardDebt",
          "type": "uint256"
        },
        {
          "internalType": "uint256",
          "name": "depositBlock",
          "type": "uint256"
        }
      ],
      "stateMutability": "view",
      "type": "function"
    },
    {
      "inputs": [
        {
          "internalType": "uint256",
          "name": "_amount",
          "type": "uint256"
        }
      ],
      "name": "withdraw",
      "outputs": [],
      "stateMutability": "nonpayable",
      "type": "function"
    }
  ],
  "transactionHash": "0x3f81200102a7c5b65cf49c6c65cd1c8cf9f705864e317be5b20d7ceca600f7bc",
  "args": [],
  "solcInputHash": "8599c16d3ce702e0bf47c5bef950e4f6",
  "bytecode": "0x60a060405234801561001057600080fd5b50600061001b610075565b600080546001600160a01b0319166001600160a01b0383169081178255604051929350917f8be0079c531659141344cd1fd0a4f28419497f9722a3daafe3b4186f6b6457e0908290a350600180553360601b608052610079565b3390565b60805160601c6123ae61009b600039806105de528061105c52506123ae6000f3fe608060405234801561001057600080fd5b50600436106102115760003560e01c806380dc067211610125578063b6b55f25116100ad578063db2e21bc1161007c578063db2e21bc146104c6578063e00e3ecd146104ce578063f2fde38b146104eb578063f40f0f5214610511578063f7c618c11461053757610211565b8063b6b55f2514610473578063bdf4fd9014610490578063cc7a262e146104b6578063ccd34cd5146104be57610211565b80638f662915116100f45780638f6629151461041357806392e8990e1461041b5780639513997f14610423578063a0b4090514610446578063a9f8d1811461046b57610211565b806380dc0672146103ab57806383a5041c146103b35780638ae39cac146104035780638da5cb5b1461040b57610211565b80632e1a7d4d116101a85780634641257d116101775780634641257d1461036e57806348cd4cb11461037657806366fe9f8a1461037e578063715018a6146103865780637c5b4a371461038e57610211565b80632e1a7d4d146102ec5780632f4d4e3114610309578063392e53cd146103265780633f138d4b1461034257610211565b806315908d51116101e457806315908d511461027b5780631959a002146102835780631aed6553146102c75780631e2720ff146102cf57610211565b806301f8a97614610216578063037624f3146102355780630b71a37d146102595780630c540e1414610273575b600080fd5b6102336004803603602081101561022c57600080fd5b503561053f565b005b61023d6105dc565b604080516001600160a01b039092168252519081900360200190f35b610261610600565b60408051918252519081900360200190f35b610261610606565b61026161060c565b6102a96004803603602081101561029957600080fd5b50356001600160a01b0316610612565b60408051938452602084019290925282820152519081900360600190f35b610261610633565b610233600480360360208110156102e557600080fd5b5035610639565b6102336004803603602081101561030257600080fd5b50356107eb565b6102336004803603602081101561031f57600080fd5b50356109d5565b61032e610a7e565b604080519115158252519081900360200190f35b6102336004803603604081101561035857600080fd5b506001600160a01b038135169060200135610a8c565b610233610be4565b610261610ced565b610261610cf3565b610233610cf9565b610233600480360360208110156103a457600080fd5b5035610da5565b610233610fa2565b610233600480360360e08110156103c957600080fd5b506001600160a01b038135811691602081013582169160408201359160608101359160808201359160a08101359160c0909101351661100a565b610261611215565b61023d61121b565b61026161122a565b61032e611230565b6102336004803603604081101561043957600080fd5b5080359060200135611239565b6102336004803603604081101561045c57600080fd5b50803515159060200135611327565b610261611467565b6102336004803603602081101561048957600080fd5b503561146d565b61032e600480360360208110156104a657600080fd5b50356001600160a01b031661162b565b61023d61165d565b61026161166c565b610233611672565b610233600480360360208110156104e457600080fd5b5035611792565b6102336004803603602081101561050157600080fd5b50356001600160a01b031661183b565b6102616004803603602081101561052757600080fd5b50356001600160a01b031661193d565b61023d611a21565b610547611a30565b6001600160a01b031661055861121b565b6001600160a01b0316146105a1576040805162461bcd60e51b815260206004820181905260248201526000805160206122f0833981519152604482015290519081900360640190fd5b60088190556040805182815290517f0c4d677eef92893ac7ec52faf8140fc6c851ab4736302b4f3a89dfb20696a0df9181900360200190a150565b7f000000000000000000000000000000000000000000000000000000000000000081565b600d5481565b600c5481565b600e5481565b600f6020526000908152604090208054600182015460029092015490919083565b60045481565b6002600154141561067f576040805162461bcd60e51b815260206004820152601f6024820152600080516020612069833981519152604482015290519081900360640190fd5b600260015561068c611a30565b6001600160a01b031661069d61121b565b6001600160a01b0316146106e6576040805162461bcd60e51b815260206004820181905260248201526000805160206122f0833981519152604482015290519081900360640190fd5b600a54604080516370a0823160e01b8152336004820152905183926001600160a01b0316916370a08231916024808301926020929190829003018186803b15801561073057600080fd5b505afa158015610744573d6000803e3d6000fd5b505050506040513d602081101561075a57600080fd5b505110156107995760405162461bcd60e51b815260040180806020018281038252603a815260200180612310603a913960400191505060405180910390fd5b600a546107b1906001600160a01b0316333084611a34565b6040805182815290517f19d619b124479c2d70fdcdb33644246ae36f947e11b9612f998df529be9e54b69181900360200190a15060018055565b60026001541415610831576040805162461bcd60e51b815260206004820152601f6024820152600080516020612069833981519152604482015290519081900360640190fd5b6002600155336000908152600f6020526040902080548211156108855760405162461bcd60e51b815260040180806020018281038252603c815260200180612089603c913960400191505060405180910390fd5b61088d611a94565b60006108c282600101546108bc6009546108b66003548760000154611b0690919063ffffffff16565b90611b68565b90611bcf565b9050821561095d5781546108d69084611bcf565b82556108e13361162b565b15610935576109303361091d670de0b6b3a76400006108b6610916600e54670de0b6b3a7640000611bcf90919063ffffffff16565b8890611b06565b600b546001600160a01b03169190611c2c565b61094c565b600b5461094c906001600160a01b03163385611c2c565b600c546109599084611bcf565b600c555b801561097a57600a5461097a906001600160a01b03163383611c2c565b600954600354835461099192916108b69190611b06565b600183015560408051848152905133917f884edad9ce6fa2440d8a54cc123490eb96d2768479d49ff9c7366125a9424364919081900360200190a250506001805550565b6109dd611a30565b6001600160a01b03166109ee61121b565b6001600160a01b031614610a37576040805162461bcd60e51b815260206004820181905260248201526000805160206122f0833981519152604482015290519081900360640190fd5b600d805490829055604080518281526020810184905281517f127dc83d857a4bc6af9d4a38626330f1ffd556e597408dc310b9edfd5386a61b929181900390910190a15050565b600254610100900460ff1681565b610a94611a30565b6001600160a01b0316610aa561121b565b6001600160a01b031614610aee576040805162461bcd60e51b815260206004820181905260248201526000805160206122f0833981519152604482015290519081900360640190fd5b600b546001600160a01b0383811691161415610b3b5760405162461bcd60e51b815260040180806020018281038252604181526020018061228e6041913960600191505060405180910390fd5b600a546001600160a01b0383811691161415610b885760405162461bcd60e51b81526004018080602001828103825260418152602001806121736041913960600191505060405180910390fd5b610b9c6001600160a01b0383163383611c2c565b604080516001600160a01b03841681526020810183905281517f74545154aac348a3eac92596bd1971957ca94795f4e954ec5f613b55fab78129929181900390910190a15050565b60026001541415610c2a576040805162461bcd60e51b815260206004820152601f6024820152600080516020612069833981519152604482015290519081900360640190fd5b6002600155336000908152600f60205260409020610c46611a94565b805415610c97576000610c7682600101546108bc6009546108b66003548760000154611b0690919063ffffffff16565b90508015610c9557600a54610c95906001600160a01b03163383611c2c565b505b6009546003548254610cae92916108b69190611b06565b60018201556040805133815290517f188a622567eeca997c3d494fd65f76ca910b90a50a0c44d5e37b2ea5539e027b9181900360200190a15060018055565b60055481565b60075481565b610d01611a30565b6001600160a01b0316610d1261121b565b6001600160a01b031614610d5b576040805162461bcd60e51b815260206004820181905260248201526000805160206122f0833981519152604482015290519081900360640190fd5b600080546040516001600160a01b03909116907f8be0079c531659141344cd1fd0a4f28419497f9722a3daafe3b4186f6b6457e0908390a3600080546001600160a01b0319169055565b60026001541415610deb576040805162461bcd60e51b815260206004820152601f6024820152600080516020612069833981519152604482015290519081900360640190fd5b6002600155610df8611a30565b6001600160a01b0316610e0961121b565b6001600160a01b031614610e52576040805162461bcd60e51b815260206004820181905260248201526000805160206122f0833981519152604482015290519081900360640190fd5b60008111610e915760405162461bcd60e51b81526004018080602001828103825260458152602001806122106045913960600191505060405180910390fd5b600c54600a54604080516370a0823160e01b81523060048201529051610f1393926001600160a01b0316916370a08231916024808301926020929190829003018186803b158015610ee157600080fd5b505afa158015610ef5573d6000803e3d6000fd5b505050506040513d6020811015610f0b57600080fd5b505190611bcf565b811115610f515760405162461bcd60e51b81526004018080602001828103825260458152602001806122106045913960600191505060405180910390fd5b600a54610f68906001600160a01b03163383611c2c565b6040805182815290517f0c19c6325aefe1fa748b9a79e9fc092a292bb370d2a5a0d13f138bb8f46429da9181900360200190a15060018055565b610faa611a30565b6001600160a01b0316610fbb61121b565b6001600160a01b031614611004576040805162461bcd60e51b815260206004820181905260248201526000805160206122f0833981519152604482015290519081900360640190fd5b43600455565b600254610100900460ff16156110515760405162461bcd60e51b81526004018080602001828103825260368152602001806121b46036913960400191505060405180910390fd5b336001600160a01b037f000000000000000000000000000000000000000000000000000000000000000016146110b85760405162461bcd60e51b815260040180806020018281038252602f81526020018061234a602f913960400191505060405180910390fd5b6002805461ff001916610100179055600b80546001600160a01b03808a166001600160a01b031992831617909255600a8054928916929091169190911790556008859055600584905560048390556000600c5562062700600d55662386f26fc10000600e558115611136576002805460ff1916600117905560078290555b600a546040805163313ce56760e01b815290516000926001600160a01b03169163313ce567916004808301926020929190829003018186803b15801561117b57600080fd5b505afa15801561118f573d6000803e3d6000fd5b505050506040513d60208110156111a557600080fd5b505160ff169050601e81106111eb5760405162461bcd60e51b81526004018080602001828103825260398152602001806122556039913960400191505060405180910390fd5b6111f6601e82611bcf565b600a0a60095560055460065561120b8261183b565b5050505050505050565b60085481565b6000546001600160a01b031690565b60035481565b60025460ff1681565b611241611a30565b6001600160a01b031661125261121b565b6001600160a01b03161461129b576040805162461bcd60e51b815260206004820181905260248201526000805160206122f0833981519152604482015290519081900360640190fd5b8082106112d95760405162461bcd60e51b815260040180806020018281038252605e815260200180612115605e913960600191505060405180910390fd5b600582905560048190556006829055604080518381526020810183905281517f7cd0ab87d19036f3dfadadb232c78aa4879dda3f0c994a9d637532410ee2ce06929181900390910190a15050565b61132f611a30565b6001600160a01b031661134061121b565b6001600160a01b031614611389576040805162461bcd60e51b815260206004820181905260248201526000805160206122f0833981519152604482015290519081900360640190fd5b60025460ff166113ca5760405162461bcd60e51b815260040180806020018281038252603a815260200180611fe8603a913960400191505060405180910390fd5b811561141a5760075481116114105760405162461bcd60e51b81526004018080602001828103825260478152602001806120226047913960600191505060405180910390fd5b600781905561142e565b6002805460ff191683151517905560006007555b60075460408051918252517f241f67ee5f41b7a5cabf911367329be7215900f602ebfc47f89dce2a6bcd847c9181900360200190a15050565b60065481565b600260015414156114b3576040805162461bcd60e51b815260206004820152601f6024820152600080516020612069833981519152604482015290519081900360640190fd5b60026001819055336000908152600f60205260409020905460ff16156115365760075481546114e3908490611c83565b1115611536576040805162461bcd60e51b815260206004820152601760248201527f5573657220616d6f756e742061626f7665206c696d6974000000000000000000604482015290519081900360640190fd5b61153e611a94565b80541561158f57600061156e82600101546108bc6009546108b66003548760000154611b0690919063ffffffff16565b9050801561158d57600a5461158d906001600160a01b03163383611c2c565b505b81156115cb5780546115a19083611c83565b8155600c546115b09083611c83565b600c55600b546115cb906001600160a01b0316333085611a34565b43600282015560095460035482546115e892916108b69190611b06565b600182015560408051838152905133917fe1fffcc4923d04b559f4d29a8bfc6cda04eb5b0d3c460751c2402c5c5cc9109c919081900360200190a2505060018055565b6001600160a01b0381166000908152600f60205260408120600d54600282015461165491611c83565b43119392505050565b600b546001600160a01b031681565b60095481565b600260015414156116b8576040805162461bcd60e51b815260206004820152601f6024820152600080516020612069833981519152604482015290519081900360640190fd5b60026001908155336000908152600f60205260408120805482825592810191909155908015611753576116ea3361162b565b1561172b576117263361091d670de0b6b3a76400006108b661171f600e54670de0b6b3a7640000611bcf90919063ffffffff16565b8690611b06565b611742565b600b54611742906001600160a01b03163383611c2c565b600c5461174f9082611bcf565b600c555b8154604080519182525133917f5fafa99d0643513820be26656b45130b01e1c03062e1266bf36f88cbd3bd9695919081900360200190a2505060018055565b61179a611a30565b6001600160a01b03166117ab61121b565b6001600160a01b0316146117f4576040805162461bcd60e51b815260206004820181905260248201526000805160206122f0833981519152604482015290519081900360640190fd5b600e805490829055604080518281526020810184905281517f67ac5c37abfa810c9a84c1050cdf000d57e46077319beb09fd91ee835b6d4418929181900390910190a15050565b611843611a30565b6001600160a01b031661185461121b565b6001600160a01b03161461189d576040805162461bcd60e51b815260206004820181905260248201526000805160206122f0833981519152604482015290519081900360640190fd5b6001600160a01b0381166118e25760405162461bcd60e51b81526004018080602001828103825260268152602001806120ef6026913960400191505060405180910390fd5b600080546040516001600160a01b03808516939216917f8be0079c531659141344cd1fd0a4f28419497f9722a3daafe3b4186f6b6457e091a3600080546001600160a01b0319166001600160a01b0392909216919091179055565b6001600160a01b0381166000908152600f60205260408120600c546006544311801561196857508015155b156119f057600061197b60065443611cdd565b9050600061199460085483611b0690919063ffffffff16565b905060006119bd6119b4856108b660095486611b0690919063ffffffff16565b60035490611c83565b90506119e485600101546108bc6009546108b6858a60000154611b0690919063ffffffff16565b95505050505050611a1c565b611a1782600101546108bc6009546108b66003548760000154611b0690919063ffffffff16565b925050505b919050565b600a546001600160a01b031681565b3390565b604080516001600160a01b0380861660248301528416604482015260648082018490528251808303909101815260849091019091526020810180516001600160e01b03166323b872dd60e01b179052611a8e908590611d17565b50505050565b6006544311611aa257611b04565b600c5480611ab4575043600655611b04565b6000611ac260065443611cdd565b90506000611adb60085483611b0690919063ffffffff16565b9050611af96119b4846108b660095485611b0690919063ffffffff16565b600355505043600655505b565b600082611b1557506000611b62565b82820282848281611b2257fe5b0414611b5f5760405162461bcd60e51b81526004018080602001828103825260218152602001806122cf6021913960400191505060405180910390fd5b90505b92915050565b6000808211611bbe576040805162461bcd60e51b815260206004820152601a60248201527f536166654d6174683a206469766973696f6e206279207a65726f000000000000604482015290519081900360640190fd5b818381611bc757fe5b049392505050565b600082821115611c26576040805162461bcd60e51b815260206004820152601e60248201527f536166654d6174683a207375627472616374696f6e206f766572666c6f770000604482015290519081900360640190fd5b50900390565b604080516001600160a01b038416602482015260448082018490528251808303909101815260649091019091526020810180516001600160e01b031663a9059cbb60e01b179052611c7e908490611d17565b505050565b600082820183811015611b5f576040805162461bcd60e51b815260206004820152601b60248201527f536166654d6174683a206164646974696f6e206f766572666c6f770000000000604482015290519081900360640190fd5b60006004548211611cf957611cf28284611bcf565b9050611b62565b6004548310611d0a57506000611b62565b600454611cf29084611bcf565b6060611d6c826040518060400160405280602081526020017f5361666542455032303a206c6f772d6c6576656c2063616c6c206661696c6564815250856001600160a01b0316611dc89092919063ffffffff16565b805190915015611c7e57808060200190516020811015611d8b57600080fd5b5051611c7e5760405162461bcd60e51b815260040180806020018281038252602a8152602001806120c5602a913960400191505060405180910390fd5b6060611dd78484600085611de1565b90505b9392505050565b606082471015611e225760405162461bcd60e51b81526004018080602001828103825260268152602001806121ea6026913960400191505060405180910390fd5b611e2b85611f3d565b611e7c576040805162461bcd60e51b815260206004820152601d60248201527f416464726573733a2063616c6c20746f206e6f6e2d636f6e7472616374000000604482015290519081900360640190fd5b60006060866001600160a01b031685876040518082805190602001908083835b60208310611ebb5780518252601f199092019160209182019101611e9c565b6001836020036101000a03801982511681845116808217855250505050505090500191505060006040518083038185875af1925050503d8060008114611f1d576040519150601f19603f3d011682016040523d82523d6000602084013e611f22565b606091505b5091509150611f32828286611f43565b979650505050505050565b3b151590565b60608315611f52575081611dda565b825115611f625782518084602001fd5b8160405162461bcd60e51b81526004018080602001828103825283818151815260200191508051906020019080838360005b83811015611fac578181015183820152602001611f94565b50505050905090810190601f168015611fd95780820380516001836020036101000a031916815260200191505b509250505060405180910390fdfe4469766964656e64496e697469616c697a61626c653a3a757064617465506f6f6c4c696d6974506572557365723a204d757374206265207365744469766964656e64496e697469616c697a61626c653a3a757064617465506f6f6c4c696d6974506572557365723a204e6577206c696d6974206d757374206265206869676865725265656e7472616e637947756172643a207265656e7472616e742063616c6c004469766964656e64496e697469616c697a61626c653a3a77697468647261773a20416d6f756e7420746f20776974686472617720746f6f20686967685361666542455032303a204245503230206f7065726174696f6e20646964206e6f7420737563636565644f776e61626c653a206e6577206f776e657220697320746865207a65726f20616464726573734469766964656e64496e697469616c697a61626c653a3a7570646174655374617274416e64456e64426c6f636b733a204e6577207374617274426c6f636b206d757374206265206c6f776572207468616e206e657720656e64426c6f636b4469766964656e64496e697469616c697a61626c653a3a7265636f76657257726f6e67546f6b656e733a2043616e6e6f742062652072657761726420746f6b656e4469766964656e64496e697469616c697a61626c653a3a696e697469616c697a653a20416c726561647920696e697469616c697a6564416464726573733a20696e73756666696369656e742062616c616e636520666f722063616c6c4469766964656e64496e697469616c697a61626c653a3a61646d696e57697468647261773a205f616d6f756e742073686f756c6420626520686967686572207468616e20304469766964656e64496e697469616c697a61626c653a3a696e697469616c697a653a204d75737420626520696e666572696f7220746f2033304469766964656e64496e697469616c697a61626c653a3a7265636f76657257726f6e67546f6b656e733a2043616e6e6f74206265207374616b656420746f6b656e536166654d6174683a206d756c7469706c69636174696f6e206f766572666c6f774f776e61626c653a2063616c6c6572206973206e6f7420746865206f776e65724469766964656e64496e697469616c697a61626c653a3a6465706f7369745265776172643a20496e73756666696369656e742062616c616e63654469766964656e64496e697469616c697a61626c653a3a696e697469616c697a653a204e6f74206465706c6f796572a264697066735822122074f8c891823eb5fbe6704dff1449759e5898d64c3394ec3e5ed90c2c40c2e8ad64736f6c634300060c0033",
  "devdoc": {
    "kind": "dev",
    "methods": {
      "owner()": {
        "details": "Returns the address of the current owner."
      },
      "recoverWrongTokens(address,uint256)": {
        "details": "This function is only callable by admin.",
        "params": {
          "_tokenAddress": ": the address of the token to withdraw",
          "_tokenAmount": ": the number of tokens to withdraw"
        }
      },
      "renounceOwnership()": {
        "details": "Leaves the contract without owner. It will not be possible to call `onlyOwner` functions anymore. Can only be called by the current owner. NOTE: Renouncing ownership will leave the contract without an owner, thereby removing any functionality that is only available to the owner."
      },
      "transferOwnership(address)": {
        "details": "Transfers ownership of the contract to a new account (`newOwner`). Can only be called by the current owner."
      },
      "updateStartAndEndBlocks(uint256,uint256)": {
        "details": "This function is only callable by owner.",
        "params": {
          "_bonusEndBlock": ": the new end block",
          "_startBlock": ": the new start block"
        }
      }
    },
    "version": 1
  },
  "userdoc": {
    "kind": "user",
    "methods": {
      "recoverWrongTokens(address,uint256)": {
        "notice": "It allows the admin to recover wrong tokens sent to the contract"
      },
      "updateStartAndEndBlocks(uint256,uint256)": {
        "notice": "It allows the admin to update start and end blocks"
      }
    },
    "version": 1
  },
  "storageLayout": {
    "storage": [
      {
        "astId": 1564,
        "contract": "contracts/DiamondHandInitializable.sol:DiamondHandInitializable",
        "label": "_owner",
        "offset": 0,
        "slot": "0",
        "type": "t_address"
      },
      {
        "astId": 1677,
        "contract": "contracts/DiamondHandInitializable.sol:DiamondHandInitializable",
        "label": "_status",
        "offset": 0,
        "slot": "1",
        "type": "t_uint256"
      },
      {
        "astId": 339,
        "contract": "contracts/DiamondHandInitializable.sol:DiamondHandInitializable",
        "label": "hasUserLimit",
        "offset": 0,
        "slot": "2",
        "type": "t_bool"
      },
      {
        "astId": 341,
        "contract": "contracts/DiamondHandInitializable.sol:DiamondHandInitializable",
        "label": "isInitialized",
        "offset": 1,
        "slot": "2",
        "type": "t_bool"
      },
      {
        "astId": 343,
        "contract": "contracts/DiamondHandInitializable.sol:DiamondHandInitializable",
        "label": "accTokenPerShare",
        "offset": 0,
        "slot": "3",
        "type": "t_uint256"
      },
      {
        "astId": 345,
        "contract": "contracts/DiamondHandInitializable.sol:DiamondHandInitializable",
        "label": "bonusEndBlock",
        "offset": 0,
        "slot": "4",
        "type": "t_uint256"
      },
      {
        "astId": 347,
        "contract": "contracts/DiamondHandInitializable.sol:DiamondHandInitializable",
        "label": "startBlock",
        "offset": 0,
        "slot": "5",
        "type": "t_uint256"
      },
      {
        "astId": 349,
        "contract": "contracts/DiamondHandInitializable.sol:DiamondHandInitializable",
        "label": "lastRewardBlock",
        "offset": 0,
        "slot": "6",
        "type": "t_uint256"
      },
      {
        "astId": 351,
        "contract": "contracts/DiamondHandInitializable.sol:DiamondHandInitializable",
        "label": "poolLimitPerUser",
        "offset": 0,
        "slot": "7",
        "type": "t_uint256"
      },
      {
        "astId": 353,
        "contract": "contracts/DiamondHandInitializable.sol:DiamondHandInitializable",
        "label": "rewardPerBlock",
        "offset": 0,
        "slot": "8",
        "type": "t_uint256"
      },
      {
        "astId": 355,
        "contract": "contracts/DiamondHandInitializable.sol:DiamondHandInitializable",
        "label": "PRECISION_FACTOR",
        "offset": 0,
        "slot": "9",
        "type": "t_uint256"
      },
      {
        "astId": 357,
        "contract": "contracts/DiamondHandInitializable.sol:DiamondHandInitializable",
        "label": "rewardToken",
        "offset": 0,
        "slot": "10",
        "type": "t_contract(IBEP20)1556"
      },
      {
        "astId": 359,
        "contract": "contracts/DiamondHandInitializable.sol:DiamondHandInitializable",
        "label": "stakedToken",
        "offset": 0,
        "slot": "11",
        "type": "t_contract(IBEP20)1556"
      },
      {
        "astId": 361,
        "contract": "contracts/DiamondHandInitializable.sol:DiamondHandInitializable",
        "label": "stakingCount",
        "offset": 0,
        "slot": "12",
        "type": "t_uint256"
      },
      {
        "astId": 363,
        "contract": "contracts/DiamondHandInitializable.sol:DiamondHandInitializable",
        "label": "penaltyPeriodBlocks",
        "offset": 0,
        "slot": "13",
        "type": "t_uint256"
      },
      {
        "astId": 365,
        "contract": "contracts/DiamondHandInitializable.sol:DiamondHandInitializable",
        "label": "penaltyPercentage",
        "offset": 0,
        "slot": "14",
        "type": "t_uint256"
      },
      {
        "astId": 369,
        "contract": "contracts/DiamondHandInitializable.sol:DiamondHandInitializable",
        "label": "userInfo",
        "offset": 0,
        "slot": "15",
        "type": "t_mapping(t_address,t_struct(UserInfo)376_storage)"
      }
    ],
    "types": {
      "t_address": {
        "encoding": "inplace",
        "label": "address",
        "numberOfBytes": "20"
      },
      "t_bool": {
        "encoding": "inplace",
        "label": "bool",
        "numberOfBytes": "1"
      },
      "t_contract(IBEP20)1556": {
        "encoding": "inplace",
        "label": "contract IBEP20",
        "numberOfBytes": "20"
      },
      "t_mapping(t_address,t_struct(UserInfo)376_storage)": {
        "encoding": "mapping",
        "key": "t_address",
        "label": "mapping(address => struct DiamondHandInitializable.UserInfo)",
        "numberOfBytes": "32",
        "value": "t_struct(UserInfo)376_storage"
      },
      "t_struct(UserInfo)376_storage": {
        "encoding": "inplace",
        "label": "struct DiamondHandInitializable.UserInfo",
        "members": [
          {
            "astId": 371,
            "contract": "contracts/DiamondHandInitializable.sol:DiamondHandInitializable",
            "label": "amount",
            "offset": 0,
            "slot": "0",
            "type": "t_uint256"
          },
          {
            "astId": 373,
            "contract": "contracts/DiamondHandInitializable.sol:DiamondHandInitializable",
            "label": "rewardDebt",
            "offset": 0,
            "slot": "1",
            "type": "t_uint256"
          },
          {
            "astId": 375,
            "contract": "contracts/DiamondHandInitializable.sol:DiamondHandInitializable",
            "label": "depositBlock",
            "offset": 0,
            "slot": "2",
            "type": "t_uint256"
          }
        ],
        "numberOfBytes": "96"
      },
      "t_uint256": {
        "encoding": "inplace",
        "label": "uint256",
        "numberOfBytes": "32"
      }
    }
  }
}